{"abi":[{"type":"constructor","inputs":[],"stateMutability":"nonpayable"},{"type":"receive","stateMutability":"payable"},{"type":"function","name":"addQuiz","inputs":[{"name":"q","type":"tuple","internalType":"struct Quiz.Quiz_item","components":[{"name":"id","type":"uint256","internalType":"uint256"},{"name":"question","type":"string","internalType":"string"},{"name":"answer","type":"string","internalType":"string"},{"name":"min_bet","type":"uint256","internalType":"uint256"},{"name":"max_bet","type":"uint256","internalType":"uint256"}]}],"outputs":[],"stateMutability":"nonpayable"},{"type":"function","name":"betToPlay","inputs":[{"name":"quizId","type":"uint256","internalType":"uint256"}],"outputs":[],"stateMutability":"payable"},{"type":"function","name":"bets","inputs":[{"name":"","type":"uint256","internalType":"uint256"},{"name":"","type":"address","internalType":"address"}],"outputs":[{"name":"","type":"uint256","internalType":"uint256"}],"stateMutability":"view"},{"type":"function","name":"claim","inputs":[],"outputs":[],"stateMutability":"nonpayable"},{"type":"function","name":"getAnswer","inputs":[{"name":"quizId","type":"uint256","internalType":"uint256"}],"outputs":[{"name":"","type":"string","internalType":"string"}],"stateMutability":"view"},{"type":"function","name":"getQuiz","inputs":[{"name":"quizId","type":"uint256","internalType":"uint256"}],"outputs":[{"name":"","type":"tuple","internalType":"struct Quiz.Quiz_item","components":[{"name":"id","type":"uint256","internalType":"uint256"},{"name":"question","type":"string","internalType":"string"},{"name":"answer","type":"string","internalType":"string"},{"name":"min_bet","type":"uint256","internalType":"uint256"},{"name":"max_bet","type":"uint256","internalType":"uint256"}]}],"stateMutability":"view"},{"type":"function","name":"getQuizNum","inputs":[],"outputs":[{"name":"","type":"uint256","internalType":"uint256"}],"stateMutability":"view"},{"type":"function","name":"owner","inputs":[],"outputs":[{"name":"","type":"address","internalType":"address"}],"stateMutability":"view"},{"type":"function","name":"quiz_num","inputs":[],"outputs":[{"name":"","type":"uint256","internalType":"uint256"}],"stateMutability":"view"},{"type":"function","name":"quizzes","inputs":[{"name":"","type":"uint256","internalType":"uint256"}],"outputs":[{"name":"id","type":"uint256","internalType":"uint256"},{"name":"question","type":"string","internalType":"string"},{"name":"answer","type":"string","internalType":"string"},{"name":"min_bet","type":"uint256","internalType":"uint256"},{"name":"max_bet","type":"uint256","internalType":"uint256"}],"stateMutability":"view"},{"type":"function","name":"solveQuiz","inputs":[{"name":"quizId","type":"uint256","internalType":"uint256"},{"name":"ans","type":"string","internalType":"string"}],"outputs":[{"name":"","type":"bool","internalType":"bool"}],"stateMutability":"nonpayable"},{"type":"function","name":"vault_balance","inputs":[],"outputs":[{"name":"","type":"uint256","internalType":"uint256"}],"stateMutability":"view"}],"bytecode":{"object":"0x608060405234801561000f575f5ffd5b505f80546001600160a01b0319163317815560028190556040805160a08101825260606020808301828152838501838152928401868152608085019687526001808652865180880188526005815264312b313d3f60d81b818601529092528551808701909652908552601960f91b91850191909152929052670de0b6b3a7640000909152671bc16d674ec800009091526100a8816100ae565b5061035c565b5f546001600160a01b0316331461010c5760405162461bcd60e51b815260206004820152601760248201527f6f6e6c79206f776e65722063616e20616464207175697a00000000000000000060448201526064015b60405180910390fd5b60025461011a9060016101e5565b8151146101745760405162461bcd60e51b815260206004820152602260248201527f7175697a206964206d75737420696e6372656173652073657175656e7469616c6044820152616c7960f01b6064820152608401610103565b80515f908152600160208181526040909220835181559183015183929182019061019e90826102a2565b50604082015160028201906101b390826102a2565b506060820151816003015560808201518160040155905050600160025f8282546101dd91906101e5565b909155505050565b8082018082111561020457634e487b7160e01b5f52601160045260245ffd5b92915050565b634e487b7160e01b5f52604160045260245ffd5b600181811c9082168061023257607f821691505b60208210810361025057634e487b7160e01b5f52602260045260245ffd5b50919050565b601f82111561029d57805f5260205f20601f840160051c8101602085101561027b5750805b601f840160051c820191505b8181101561029a575f8155600101610287565b50505b505050565b81516001600160401b038111156102bb576102bb61020a565b6102cf816102c9845461021e565b84610256565b6020601f821160018114610301575f83156102ea5750848201515b5f19600385901b1c1916600184901b17845561029a565b5f84815260208120601f198516915b828110156103305787850151825560209485019460019092019101610310565b508482101561034d57868401515f19600387901b60f8161c191681555b50505050600190811b01905550565b611379806103695f395ff3fe6080604052600436106100a8575f3560e01c80638f7b0961116100625780638f7b0961146101b0578063a3f7e096146101c5578063b5ab58dc146101f1578063c0da916f1461021d578063f101b3f114610231578063f644b3bb14610250575f5ffd5b80634e71d92d146100ca57806354c63f82146100e05780635901ecb0146100f35780637487361f1461011b57806388409afa1461014a5780638da5cb5b1461017a575f5ffd5b366100c6573460045f8282546100be9190610e05565b925050819055005b5f5ffd5b3480156100d5575f5ffd5b506100de61026f565b005b6100de6100ee366004610e18565b610446565b3480156100fe575f5ffd5b5061010860025481565b6040519081526020015b60405180910390f35b348015610126575f5ffd5b5061013a610135366004610ef7565b6106dc565b6040519015158152602001610112565b348015610155575f5ffd5b50610169610164366004610e18565b6108a2565b604051610112959493929190610f69565b348015610185575f5ffd5b505f54610198906001600160a01b031681565b6040516001600160a01b039091168152602001610112565b3480156101bb575f5ffd5b5061010860045481565b3480156101d0575f5ffd5b506101e46101df366004610e18565b6109db565b6040516101129190610fa8565b3480156101fc575f5ffd5b5061021061020b366004610e18565b610bc7565b604051610112919061100b565b348015610228575f5ffd5b50600254610108565b34801561023c575f5ffd5b506100de61024b366004611024565b610c94565b34801561025b575f5ffd5b5061010861026a3660046110db565b610dc6565b5f60035f8154811061028357610283611114565b5f918252602080832033845290910190526040812054600380549193509082906102af576102af611114565b5f918252602080832033845290910190526040902054116103105760405162461bcd60e51b81526020600482015260166024820152756e6f7420656c696769626c6520666f7220636c61696d60501b60448201526064015b60405180910390fd5b5f61031c826002611128565b90508060045410156103705760405162461bcd60e51b815260206004820152601a60248201527f496e73756666696369656e74207661756c742062616c616e63650000000000006044820152606401610307565b5f60035f8154811061038457610384611114565b5f918252602080832033845290910190526040812091909155600480548392906103af90849061113f565b90915550506040515f90339083908381818185875af1925050503d805f81146103f3576040519150601f19603f3d011682016040523d82523d5f602084013e6103f8565b606091505b50509050806104415760405162461bcd60e51b815260206004820152601560248201527419985a5b1959081d1bc81cd95b99081c995dd85c99605a1b6044820152606401610307565b505050565b5f8111801561045757506002548111155b6104735760405162461bcd60e51b815260040161030790611152565b5f818152600160208181526040808420815160a081019092528054825292830180549193928401916104a49061117e565b80601f01602080910402602001604051908101604052809291908181526020018280546104d09061117e565b801561051b5780601f106104f25761010080835404028352916020019161051b565b820191905f5260205f20905b8154815290600101906020018083116104fe57829003601f168201915b505050505081526020016002820180546105349061117e565b80601f01602080910402602001604051908101604052809291908181526020018280546105609061117e565b80156105ab5780601f10610582576101008083540402835291602001916105ab565b820191905f5260205f20905b81548152906001019060200180831161058e57829003601f168201915b5050505050815260200160038201548152602001600482015481525050905080606001513410156106135760405162461bcd60e51b815260206004820152601260248201527142657420616d6f756e7420746f6f206c6f7760701b6044820152606401610307565b806080015134111561065d5760405162461bcd60e51b8152602060048201526013602482015272084cae840c2dadeeadce840e8dede40d0d2ced606b1b6044820152606401610307565b5b600354821115610678576003805460010181555f5261065e565b34600361068660018561113f565b8154811061069657610696611114565b5f918252602080832033845290910190526040812080549091906106bb908490610e05565b925050819055503460045f8282546106d39190610e05565b90915550505050565b5f5f831180156106ee57506002548311155b61070a5760405162461bcd60e51b815260040161030790611152565b5f600361071860018661113f565b8154811061072857610728611114565b5f9182526020808320338452909101905260409020541161077a5760405162461bcd60e51b815260206004820152600c60248201526b1b9bc818995d08199bdd5b9960a21b6044820152606401610307565b5f600361078860018661113f565b8154811061079857610798611114565b5f918252602080832033845290910190526040812054915060036107bd60018761113f565b815481106107cd576107cd611114565b5f91825260208083203384529091018152604080832093909355868252600181528282209251919261080592600290910191016111b6565b604051602081830303815290604052805190602001208460405160200161082c9190611227565b604051602081830303815290604052805190602001201490508061086b578160045f82825461085b9190610e05565b909155505f935061089c92505050565b8160035f8154811061087f5761087f611114565b5f9182526020808320338452909101905260409020555060019150505b92915050565b600160208190525f9182526040909120805491810180546108c29061117e565b80601f01602080910402602001604051908101604052809291908181526020018280546108ee9061117e565b80156109395780601f1061091057610100808354040283529160200191610939565b820191905f5260205f20905b81548152906001019060200180831161091c57829003601f168201915b50505050509080600201805461094e9061117e565b80601f016020809104026020016040519081016040528092919081815260200182805461097a9061117e565b80156109c55780601f1061099c576101008083540402835291602001916109c5565b820191905f5260205f20905b8154815290600101906020018083116109a857829003601f168201915b5050505050908060030154908060040154905085565b610a0a6040518060a001604052805f815260200160608152602001606081526020015f81526020015f81525090565b5f82118015610a1b57506002548211155b610a595760405162461bcd60e51b815260206004820152600f60248201526e1a5b9d985b1a59081c5d5a5e881a59608a1b6044820152606401610307565b5f828152600160208181526040808420815160a08101909252805482529283018054919392840191610a8a9061117e565b80601f0160208091040260200160405190810160405280929190818152602001828054610ab69061117e565b8015610b015780601f10610ad857610100808354040283529160200191610b01565b820191905f5260205f20905b815481529060010190602001808311610ae457829003601f168201915b50505050508152602001600282018054610b1a9061117e565b80601f0160208091040260200160405190810160405280929190818152602001828054610b469061117e565b8015610b915780601f10610b6857610100808354040283529160200191610b91565b820191905f5260205f20905b815481529060010190602001808311610b7457829003601f168201915b50505091835250506003820154602080830191909152600490920154604091820152805191820181525f82528201529392505050565b60605f82118015610bda57506002548211155b610bf65760405162461bcd60e51b815260040161030790611152565b5f8281526001602052604090206002018054610c119061117e565b80601f0160208091040260200160405190810160405280929190818152602001828054610c3d9061117e565b8015610c885780601f10610c5f57610100808354040283529160200191610c88565b820191905f5260205f20905b815481529060010190602001808311610c6b57829003601f168201915b50505050509050919050565b5f546001600160a01b03163314610ced5760405162461bcd60e51b815260206004820152601760248201527f6f6e6c79206f776e65722063616e20616464207175697a0000000000000000006044820152606401610307565b600254610cfb906001610e05565b815114610d555760405162461bcd60e51b815260206004820152602260248201527f7175697a206964206d75737420696e6372656173652073657175656e7469616c6044820152616c7960f01b6064820152608401610307565b80515f9081526001602081815260409092208351815591830151839291820190610d7f9082611288565b5060408201516002820190610d949082611288565b506060820151816003015560808201518160040155905050600160025f828254610dbe9190610e05565b909155505050565b60038281548110610dd5575f80fd5b905f5260205f2001602052805f5260405f205f91509150505481565b634e487b7160e01b5f52601160045260245ffd5b8082018082111561089c5761089c610df1565b5f60208284031215610e28575f5ffd5b5035919050565b634e487b7160e01b5f52604160045260245ffd5b60405160a0810167ffffffffffffffff81118282101715610e6657610e66610e2f565b60405290565b5f82601f830112610e7b575f5ffd5b813567ffffffffffffffff811115610e9557610e95610e2f565b604051601f8201601f19908116603f0116810167ffffffffffffffff81118282101715610ec457610ec4610e2f565b604052818152838201602001851015610edb575f5ffd5b816020850160208301375f918101602001919091529392505050565b5f5f60408385031215610f08575f5ffd5b82359150602083013567ffffffffffffffff811115610f25575f5ffd5b610f3185828601610e6c565b9150509250929050565b5f81518084528060208401602086015e5f602082860101526020601f19601f83011685010191505092915050565b85815260a060208201525f610f8160a0830187610f3b565b8281036040840152610f938187610f3b565b60608401959095525050608001529392505050565b60208152815160208201525f602083015160a06040840152610fcd60c0840182610f3b565b90506040840151601f19848303016060850152610fea8282610f3b565b91505060608401516080840152608084015160a08401528091505092915050565b602081525f61101d6020830184610f3b565b9392505050565b5f60208284031215611034575f5ffd5b813567ffffffffffffffff81111561104a575f5ffd5b820160a0818503121561105b575f5ffd5b611063610e43565b81358152602082013567ffffffffffffffff811115611080575f5ffd5b61108c86828501610e6c565b602083015250604082013567ffffffffffffffff8111156110ab575f5ffd5b6110b786828501610e6c565b60408301525060608281013590820152608091820135918101919091529392505050565b5f5f604083850312156110ec575f5ffd5b8235915060208301356001600160a01b0381168114611109575f5ffd5b809150509250929050565b634e487b7160e01b5f52603260045260245ffd5b808202811582820484141761089c5761089c610df1565b8181038181111561089c5761089c610df1565b6020808252601290820152711c5d5a5e88191bd95cdb89dd08195e1a5cdd60721b604082015260600190565b600181811c9082168061119257607f821691505b6020821081036111b057634e487b7160e01b5f52602260045260245ffd5b50919050565b5f5f83546111c38161117e565b6001821680156111da57600181146111ef5761121c565b60ff198316865281151582028601935061121c565b865f5260205f205f5b83811015611214578154888201526001909101906020016111f8565b505081860193505b509195945050505050565b5f82518060208501845e5f920191825250919050565b601f82111561044157805f5260205f20601f840160051c810160208510156112625750805b601f840160051c820191505b81811015611281575f815560010161126e565b5050505050565b815167ffffffffffffffff8111156112a2576112a2610e2f565b6112b6816112b0845461117e565b8461123d565b6020601f8211600181146112e8575f83156112d15750848201515b5f19600385901b1c1916600184901b178455611281565b5f84815260208120601f198516915b8281101561131757878501518255602094850194600190920191016112f7565b508482101561133457868401515f19600387901b60f8161c191681555b50505050600190811b0190555056fea26469706673582212208d86210968ea36f6f1bbfa547e26c9ff8731d29f8af7472581f1fca71265145c64736f6c634300081c0033","linkReferences":{}},"methodIdentifiers":{"addQuiz((uint256,string,string,uint256,uint256))":"f101b3f1","betToPlay(uint256)":"54c63f82","bets(uint256,address)":"f644b3bb","claim()":"4e71d92d","getAnswer(uint256)":"b5ab58dc","getQuiz(uint256)":"a3f7e096","getQuizNum()":"c0da916f","owner()":"8da5cb5b","quiz_num()":"5901ecb0","quizzes(uint256)":"88409afa","solveQuiz(uint256,string)":"7487361f","vault_balance()":"8f7b0961"},"id":18}